{
  "contractName": "KYCContract",
  "abi": [
    {
      "inputs": [],
      "payable": false,
      "stateMutability": "nonpayable",
      "type": "constructor"
    },
    {
      "constant": false,
      "inputs": [
        {
          "name": "_name",
          "type": "string"
        },
        {
          "name": "_birth",
          "type": "string"
        },
        {
          "name": "_email",
          "type": "string"
        },
        {
          "name": "_addr",
          "type": "string"
        },
        {
          "name": "_tel",
          "type": "string"
        }
      ],
      "name": "setPerson",
      "outputs": [],
      "payable": false,
      "stateMutability": "nonpayable",
      "type": "function"
    },
    {
      "constant": false,
      "inputs": [
        {
          "name": "_applicant",
          "type": "address"
        },
        {
          "name": "_span",
          "type": "uint256"
        }
      ],
      "name": "setApprove",
      "outputs": [],
      "payable": false,
      "stateMutability": "nonpayable",
      "type": "function"
    },
    {
      "constant": false,
      "inputs": [],
      "name": "setDisallowReference",
      "outputs": [],
      "payable": false,
      "stateMutability": "nonpayable",
      "type": "function"
    },
    {
      "constant": true,
      "inputs": [
        {
          "name": "_person",
          "type": "address"
        }
      ],
      "name": "getPerson",
      "outputs": [
        {
          "name": "_allowReference",
          "type": "bool"
        },
        {
          "name": "_approveBlockNo",
          "type": "uint256"
        },
        {
          "name": "_refLimitBlockNo",
          "type": "uint256"
        },
        {
          "name": "_applicant",
          "type": "address"
        },
        {
          "name": "_name",
          "type": "string"
        },
        {
          "name": "_birth",
          "type": "string"
        },
        {
          "name": "_email",
          "type": "string"
        },
        {
          "name": "_addr",
          "type": "string"
        },
        {
          "name": "_tel",
          "type": "string"
        }
      ],
      "payable": false,
      "stateMutability": "view",
      "type": "function"
    }
  ],
  "bytecode": "0x608060405234801561001057600080fd5b50336000806101000a81548173ffffffffffffffffffffffffffffffffffffffff021916908373ffffffffffffffffffffffffffffffffffffffff160217905550610fe5806100606000396000f300608060405260043610610062576000357c0100000000000000000000000000000000000000000000000000000000900463ffffffff168063552d2d5c146100675780638dde39ea1461031f578063c4925fea146104a0578063d46637f0146104ed575b600080fd5b34801561007357600080fd5b506100a8600480360381019080803573ffffffffffffffffffffffffffffffffffffffff169060200190929190505050610504565b604051808a1515151581526020018981526020018881526020018773ffffffffffffffffffffffffffffffffffffffff1673ffffffffffffffffffffffffffffffffffffffff168152602001806020018060200180602001806020018060200186810386528b818151815260200191508051906020019080838360005b83811015610140578082015181840152602081019050610125565b50505050905090810190601f16801561016d5780820380516001836020036101000a031916815260200191505b5086810385528a818151815260200191508051906020019080838360005b838110156101a657808201518184015260208101905061018b565b50505050905090810190601f1680156101d35780820380516001836020036101000a031916815260200191505b50868103845289818151815260200191508051906020019080838360005b8381101561020c5780820151818401526020810190506101f1565b50505050905090810190601f1680156102395780820380516001836020036101000a031916815260200191505b50868103835288818151815260200191508051906020019080838360005b83811015610272578082015181840152602081019050610257565b50505050905090810190601f16801561029f5780820380516001836020036101000a031916815260200191505b50868103825287818151815260200191508051906020019080838360005b838110156102d85780820151818401526020810190506102bd565b50505050905090810190601f1680156103055780820380516001836020036101000a031916815260200191505b509e50505050505050505050505050505060405180910390f35b34801561032b57600080fd5b5061049e600480360381019080803590602001908201803590602001908080601f0160208091040260200160405190810160405280939291908181526020018383808284378201915050505050509192919290803590602001908201803590602001908080601f0160208091040260200160405190810160405280939291908181526020018383808284378201915050505050509192919290803590602001908201803590602001908080601f0160208091040260200160405190810160405280939291908181526020018383808284378201915050505050509192919290803590602001908201803590602001908080601f0160208091040260200160405190810160405280939291908181526020018383808284378201915050505050509192919290803590602001908201803590602001908080601f0160208091040260200160405190810160405280939291908181526020018383808284378201915050505050509192919290505050610b8e565b005b3480156104ac57600080fd5b506104eb600480360381019080803573ffffffffffffffffffffffffffffffffffffffff16906020019092919080359060200190929190505050610d48565b005b3480156104f957600080fd5b50610502610eb7565b005b6000806000806060806060806060600160008b73ffffffffffffffffffffffffffffffffffffffff1673ffffffffffffffffffffffffffffffffffffffff16815260200190815260200160002060000160009054906101000a900460ff169850600160008b73ffffffffffffffffffffffffffffffffffffffff1673ffffffffffffffffffffffffffffffffffffffff168152602001908152602001600020600101549750600160008b73ffffffffffffffffffffffffffffffffffffffff1673ffffffffffffffffffffffffffffffffffffffff168152602001908152602001600020600201549650600160008b73ffffffffffffffffffffffffffffffffffffffff1673ffffffffffffffffffffffffffffffffffffffff16815260200190815260200160002060030160009054906101000a900473ffffffffffffffffffffffffffffffffffffffff1695508573ffffffffffffffffffffffffffffffffffffffff163373ffffffffffffffffffffffffffffffffffffffff16148015610692575060011515891515145b801561069d57508643105b806106f457506000809054906101000a900473ffffffffffffffffffffffffffffffffffffffff1673ffffffffffffffffffffffffffffffffffffffff163373ffffffffffffffffffffffffffffffffffffffff16145b8061072a57508973ffffffffffffffffffffffffffffffffffffffff163373ffffffffffffffffffffffffffffffffffffffff16145b15610b8157600260008b73ffffffffffffffffffffffffffffffffffffffff1673ffffffffffffffffffffffffffffffffffffffff1681526020019081526020016000206000018054600181600116156101000203166002900480601f0160208091040260200160405190810160405280929190818152602001828054600181600116156101000203166002900480156108055780601f106107da57610100808354040283529160200191610805565b820191906000526020600020905b8154815290600101906020018083116107e857829003601f168201915b50505050509450600260008b73ffffffffffffffffffffffffffffffffffffffff1673ffffffffffffffffffffffffffffffffffffffff1681526020019081526020016000206001018054600181600116156101000203166002900480601f0160208091040260200160405190810160405280929190818152602001828054600181600116156101000203166002900480156108e25780601f106108b7576101008083540402835291602001916108e2565b820191906000526020600020905b8154815290600101906020018083116108c557829003601f168201915b50505050509350600260008b73ffffffffffffffffffffffffffffffffffffffff1673ffffffffffffffffffffffffffffffffffffffff1681526020019081526020016000206002018054600181600116156101000203166002900480601f0160208091040260200160405190810160405280929190818152602001828054600181600116156101000203166002900480156109bf5780601f10610994576101008083540402835291602001916109bf565b820191906000526020600020905b8154815290600101906020018083116109a257829003601f168201915b50505050509250600260008b73ffffffffffffffffffffffffffffffffffffffff1673ffffffffffffffffffffffffffffffffffffffff1681526020019081526020016000206003018054600181600116156101000203166002900480601f016020809104026020016040519081016040528092919081815260200182805460018160011615610100020316600290048015610a9c5780601f10610a7157610100808354040283529160200191610a9c565b820191906000526020600020905b815481529060010190602001808311610a7f57829003601f168201915b50505050509150600260008b73ffffffffffffffffffffffffffffffffffffffff1673ffffffffffffffffffffffffffffffffffffffff1681526020019081526020016000206004018054600181600116156101000203166002900480601f016020809104026020016040519081016040528092919081815260200182805460018160011615610100020316600290048015610b795780601f10610b4e57610100808354040283529160200191610b79565b820191906000526020600020905b815481529060010190602001808311610b5c57829003601f168201915b505050505090505b9193959799909294969850565b84600260003373ffffffffffffffffffffffffffffffffffffffff1673ffffffffffffffffffffffffffffffffffffffff1681526020019081526020016000206000019080519060200190610be4929190610f14565b5083600260003373ffffffffffffffffffffffffffffffffffffffff1673ffffffffffffffffffffffffffffffffffffffff1681526020019081526020016000206001019080519060200190610c3b929190610f14565b5082600260003373ffffffffffffffffffffffffffffffffffffffff1673ffffffffffffffffffffffffffffffffffffffff1681526020019081526020016000206002019080519060200190610c92929190610f14565b5081600260003373ffffffffffffffffffffffffffffffffffffffff1673ffffffffffffffffffffffffffffffffffffffff1681526020019081526020016000206003019080519060200190610ce9929190610f14565b5080600260003373ffffffffffffffffffffffffffffffffffffffff1673ffffffffffffffffffffffffffffffffffffffff1681526020019081526020016000206004019080519060200190610d40929190610f14565b505050505050565b60018060003373ffffffffffffffffffffffffffffffffffffffff1673ffffffffffffffffffffffffffffffffffffffff16815260200190815260200160002060000160006101000a81548160ff02191690831515021790555043600160003373ffffffffffffffffffffffffffffffffffffffff1673ffffffffffffffffffffffffffffffffffffffff16815260200190815260200160002060010181905550804301600160003373ffffffffffffffffffffffffffffffffffffffff1673ffffffffffffffffffffffffffffffffffffffff1681526020019081526020016000206002018190555081600160003373ffffffffffffffffffffffffffffffffffffffff1673ffffffffffffffffffffffffffffffffffffffff16815260200190815260200160002060030160006101000a81548173ffffffffffffffffffffffffffffffffffffffff021916908373ffffffffffffffffffffffffffffffffffffffff1602179055505050565b6000600160003373ffffffffffffffffffffffffffffffffffffffff1673ffffffffffffffffffffffffffffffffffffffff16815260200190815260200160002060000160006101000a81548160ff021916908315150217905550565b828054600181600116156101000203166002900490600052602060002090601f016020900481019282601f10610f5557805160ff1916838001178555610f83565b82800160010185558215610f83579182015b82811115610f82578251825591602001919060010190610f67565b5b509050610f909190610f94565b5090565b610fb691905b80821115610fb2576000816000905550600101610f9a565b5090565b905600a165627a7a723058204a88143a30ebd9faea7a0f733ec8ed51cf6aaeca4ad72f8ff8600a86b006e0d10029",
  "source": "pragma solidity ^0.4.23;\n\n/**\n * @title KYCContract\n * @notice KYC 用のコントラクト\n */\ncontract KYCContract {\n  address owner;\n\n  // @notice 閲覧許可情報\n  struct AppDetail {\n    bool allowReference;\n    uint256 approveBlockNo;\n    uint256 refLimitBlockNo;\n    address applicant;\n  }\n\n  /**\n   * @notice 本人確認情報\n   * name: 名前\n   * birth: 誕生日\n   * email: メールアドレス\n   * addr: 住所\n   * tel: 電話番号\n   */\n  struct PersonDetail {\n    string name;\n    string birth;\n    string email;\n    string addr; // @notice address が予約後なので addr\n    string tel;\n  }\n\n  // @notice アドレスがキーの閲覧許可情報\n  mapping(address => AppDetail) appDetail;\n\n  // @notice アドレスがキーの本人確認情報\n  mapping(address => PersonDetail) personDetail;\n\n  // @notice コンストラクタ\n  constructor() public {\n    owner = msg.sender;\n  }\n\n  /**\n   * @notice set\n   */\n  // @notice 本人情報を登録する\n  function setPerson(string _name, string _birth, string _email, string _addr, string _tel) public {\n    personDetail[msg.sender].name = _name;\n    personDetail[msg.sender].birth = _birth;\n    personDetail[msg.sender].email = _email;\n    personDetail[msg.sender].addr = _addr;\n    personDetail[msg.sender].tel = _tel;\n  }\n\n  // @notice 閲覧許可・期間の設定\n  // @dev 指定した block.number 分だけ閲覧許可を出す\n  function setApprove(address _applicant, uint256 _span) public {\n    appDetail[msg.sender].allowReference = true;\n    appDetail[msg.sender].approveBlockNo = block.number;\n    appDetail[msg.sender].refLimitBlockNo = block.number + _span;\n    appDetail[msg.sender].applicant = _applicant;\n  }\n\n  // @notice 緊急時、閲覧を停止させる\n  function setDisallowReference() public {\n    appDetail[msg.sender].allowReference = false;\n  }\n\n  /**\n   * @notice get\n   */\n  // @notice 本人確認情報を参照する\n  // @dev personDetail を struct で return したかったけど、 `This type is only supported in the new experimental ABI encoder.` だったのでバラバラで出力…\n  function getPerson(address _person) public constant returns (\n    bool _allowReference,\n    uint256 _approveBlockNo,\n    uint256 _refLimitBlockNo,\n    address _applicant,\n    string _name,\n    string _birth,\n    string _email,\n    string _addr,\n    string _tel\n  ) {\n    // @notice 閲覧許可情報\n    // owner と 本人はいつでも見れる\n    _allowReference = appDetail[_person].allowReference;\n    _approveBlockNo = appDetail[_person].approveBlockNo;\n    _refLimitBlockNo = appDetail[_person].refLimitBlockNo;\n    _applicant = appDetail[_person].applicant;\n    // @notice 閲覧を制限する本人情報\n    if (((msg.sender == _applicant)\n      && (_allowReference == true)\n      && (block.number < _refLimitBlockNo))\n      || (msg.sender == owner)\n      || (msg.sender == _person)) {\n      _name = personDetail[_person].name;\n      _birth = personDetail[_person].birth;\n      _email = personDetail[_person].email;\n      _addr = personDetail[_person].addr;\n      _tel = personDetail[_person].tel;\n    }\n  }\n}\n",
  "sourcePath": "/Users/a13020/Documents/git/kyc-contract/contracts/KYCContract.sol",
  "compiler": {
    "name": "solc",
    "version": "0.4.23+commit.124ca40d.Emscripten.clang"
  },
  "schemaVersion": "2.0.0",
  "updatedAt": "2018-05-17T09:29:50.841Z"
}